:020000040800F2
:1000000000500020370100083101000831010008CC
:100010003101000831010008310100080000000032
:100020000000000000000000000000003101000896
:100030003101000800000000310100083101000812
:1000400031010008310100083101000831010008C8
:1000500031010008310100083101000831010008B8
:1000600031010008310100083101000831010008A8
:100070003101000831010008310100083101000898
:100080003101000831010008310100083101000888
:100090003101000831010008310100083101000878
:1000A0003101000831010008310100083101000868
:1000B0003101000831010008310100083101000858
:1000C0003101000831010008310100083101000848
:1000D0003101000831010008310100083101000838
:1000E0003101000831010008310100083101000828
:1000F0003101000831010008310100083101000818
:100100003101000831010008310100083101000807
:1001100031010008310100083101000831010008F7
:1001200031010008310100083101000831010008E7
:1001300080B400AFFEE780B586B000AF1A4A1B4B13
:10014000D31A7B601A4A1B4BD31A3B601A4B7B6154
:10015000154B3B610023FB600AE07A69131D7B614C
:100160003B69191D396112681A60FB680133FB6035
:10017000FA687B689A42F0D30E4B3B610023BB6068
:1001800007E03B691A1D3A6100221A60BB6801331F
:10019000BB60BA683B689A42F3D300F00FF800BF27
:1001A0001837BD4680BD00BF0000002000000020C1
:1001B00000000020000000204C02000880B483B042
:1001C00000AF1F4B9B691E4A43F0080393611D4B10
:1001D0001B681C4A43F4807313601A4B1B68194A4E
:1001E00043F400731360174B1B68164A23F48063B3
:1001F0001360144B1B68134A23F40063136000233D
:100200007B6002E07B6801337B607B680E4A93422F
:10021000F8DD0C4BDB680B4A23F00403D3600023AA
:100220003B6002E03B6801333B603B68064A934217
:10023000F8DD044BDB68034A43F00403D360DEE7D8
:0C02400000100240000C01403F420F0083
:0400000508000137B7
:00000001FF
